:020000040000FA
:0A1800000226CB1A661A6B227FB88D
:01180A00FFDE
:10180B00025C8BEF90181793901900730A20364CDB
:10181B00E562FF22EFF56222822D1C1613111010C8
:10182B0002519DE4FFFE121B39600C0FEF70010E8D
:10183B0009E970F20A80EF221B241B291B2E1B3394
:10184B00024B859029AAEBF0A3EAF0A3E9F0E49010
:10185B0029B2F0A3F09029B074FFF5F0121C524599
:10186B00F0603C9029ADE0FBA3E0FAA3E0F9121B7A
:10187B0039FF9029AAE0FBA3E0FAA3E0F99029B283
:10188B00E475F001121C5285F082F583EF121BB345
:10189B00EF60C29029AEE475F001121C3C80B6904B
:1018AB0029AAE0FBA3E0FAA3E0F922C2D5E830E7CE
:1018BB000FB2D5E4C39BFBE49AFAE499F9E498F8E8
:1018CB00EC30E717B2D51218EC121D4AE4C39BFBA0
:1018DB00E49AFAE499F9E498F88003121D4A30D59A
:1018EB000DE4C39FFFE49EFEE49DFDE49CFC221AE5
:1018FB00BB1AC01AC5C0627419C0E0C082C0837520
:10190B00620AE5FF54CF4490F5FF22C0627419C000
:10191B00E0C082C083756220E5FF54CF4490F5FF91
:10192B0022C0627419C0E0C082C083756236E5FFC5
:10193B0054CF44A0F5FF22C0627419C0E0C082C02E
:10194B008375624CE5FF54CF44B0F5FF2290800ABB
:10195B00211690880021169088032116908FF7216D
:10196B00169097F221169097F521169097FC211659
:10197B00909FF3211690A044211690A7F821169062
:10198B00A7F9211690A9B92116908E8D211690A931
:10199B0068211690B965211690B96B211690AF434B
:1019AB00211690C359211690C544211690A162218E
:1019BB001690C659211690C66E211690C680211618
:1019CB0090C715211690C69D211690C7DB21169046
:1019DB00C849211690C8B0211690C9762116908956
:1019EB0063211690897D21169088C9211690BDE040
:1019FB00211690BB4D211690BD0B211690BC832157
:101A0B001690C98D21169096F62116908A472116AD
:101A1B009089B5211690C9AA2116908A8C2116900F
:101A2B00882F211690886F2116908AD2211690CC80
:101A3B0017211690B676211690CC93211690BE1EC8
:101A4B00211690C7D6211690C7C6211690CCA3217C
:101A5B001690CCF4211690CD40211690A95A211640
:101A6B0090A775211690C82F211690897C212C9058
:101A7B008E20212C909B28212C90A70E212C90A7F7
:101A8B0037212C90A74B212C90A751212C908ADA2F
:101A9B00212C90A595212C90A86C212C908641216E
:101AAB002C90A878212C90AA50212C90AA80212C24
:101ABB0090ABA3212C90ABC7212C90AC0D212C907B
:101ACB009D7A212C90AC30212C90AC62212C90A7CC
:101ADB0018212C90ACF9212C90ADD8212C90AEAEC6
:101AEB00212C90AEFC212C908872212C90AFC82118
:101AFB002C90B040212C90B059212C90B0E3212C8C
:101B0B0090B153212C90A20A212C90A214212C903D
:101B1B00A21E212C90A295212C90B19D212C90B12D
:101B2B00A2212C90A233212C90B1AE212C00BB0111
:101B3B000689828A83E0225002E722BBFE02E3225F
:101B4B0089828A83E49322BB010CE58229F582E525
:101B5B00833AF583E0225006E92582F8E622BBFEA4
:101B6B0006E92582F8E222E58229F582E5833AF53A
:101B7B0083E49322BB010989828A83F8E028F0224F
:101B8B00500327F722BBFE05F8E328F3228A83894B
:101B9B0082F8E4932822BB010689828A83F02250C3
:101BAB0002F722BBFE01F322F8BB010DE58229F5FA
:101BBB0082E5833AF583E8F0225006E92582C8F6E0
:101BCB0022BBFE05E92582C8F222EF8DF0A4A8F016
:101BDB00CF8CF0A428CE8DF0A42EFE22BC000BBE21
:101BEB000029EF8DF084FFADF022E4CCF875F008FE
:101BFB00EF2FFFEE33FEEC33FCEE9DEC984005FC33
:101C0B00EE9DFE0FD5F0E9E4CEFD22EDF8F5F0EEFA
:101C1B008420D21CFEADF075F008EF2FFFED33FDE5
:101C2B004007985006D5F0F222C398FD0FD5F0EA85
:101C3B0022C5F0F8A3E028F0C5F0F8E58215827014
:101C4B00021583E038F022A3F8E0C5F025F0F0E5AB
:101C5B0082158270021583E0C838F0E822BB010AB6
:101C6B0089828A83E0F5F0A3E022500687F009E72A
:101C7B001922BBFE07E3F5F009E3192289828A8357
:101C8B00E493F5F074019322BB010A89828A83F0F5
:101C9B00E5F0A3F0225006F709A7F01922BBFE06C8
:101CAB00F3E5F009F31922EF2BFFEE3AFEED39FDC8
:101CBB00EC38FC22E88FF0A4CC8BF0A42CFCE98E42
:101CCB00F0A42CFC8AF0EDA42CFCEA8EF0A4CDA899
:101CDB00F08BF0A42DCC3825F0FDE98FF0A42CCDA2
:101CEB0035F0FCEB8EF0A4FEA9F0EB8FF0A4CFC582
:101CFB00F02ECD39FEE43CFCEAA42DCE35F0FDE40C
:101D0B003CFC2275F008758200EF2FFFEE33FECD01
:101D1B0033CDCC33CCC58233C5829BED9AEC99E5A0
:101D2B008298400CF582EE9BFEED9AFDEC99FC0F30
:101D3B00D5F0D6E4CEFBE4CDFAE4CCF9A88222B8F8
:101D4B0000C1B90059BA002DEC8BF084CFCECDFC7D
:101D5B00E5F0CBF97818EF2FFFEE33FEED33FDEC0A
:101D6B0033FCEB33FB10D703994004EB99FB0FD8F3
:101D7B00E5E4F9FA227818EF2FFFEE33FEED33FD91
:101D8B00EC33FCC933C910D7059BE99A4007EC9B90
:101D9B00FCE99AF90FD8E0E4C9FAE4CCFB2275F020
:101DAB0010EF2FFFEE33FEED33FDCC33CCC833C831
:101DBB0010D7079BEC9AE899400AED9BFDEC9AFC37
:101DCB00E899F80FD5F0DAE4CDFBE4CCFAE4C8F9E6
:101DDB0022EF5BFFEE5AFEED59FDEC58FC22C3E4FB
:101DEB009FFFE49EFEE49DFDE49CFC22EB9FF5F03F
:101DFB00EA9E42F0E99D42F0E89C45F022E8600F34
:101E0B00ECC313FCED13FDEE13FEEF13FFD8F12221
:101E1B00E8600FEFC333FFEE33FEED33FDEC33FC25
:101E2B00D8F122BB010789828A83021E705005E913
:101E3B00F8022093BBFE05E9F802209F22E0FCA3E9
:101E4B00E0FDA3E0FEA3E0FF22E493FC740193FD0D
:101E5B00740293FE740393FF22E0F8A3E0F9A3E06E
:101E6B00FAA3E0FB22ECF0A3EDF0A3EEF0A3EFF06E
:101E7B0022A8828583F0D083D082121E93121E93E8
:101E8B00121E93121E93E473E493A3C583C5F0C58E
:101E9B0083C8C582C8F0A3C583C5F0C583C8C582F6
:101EAB00C822A42582F582E5F03583F58322E0FB79
:101EBB00A3E0FAA3E0F922F8E0FBA3A3E0F925F0F5
:101ECB00F0E582158270021583E0FA38F022EBF010
:101EDB00A3EAF0A3E9F022BB010789828A83021EE1
:101EEB00B95005E9F80220ABBBFE05E9F80220BDAD
:101EFB0089828A830220CFBB011A89828A83D0F020
:101F0B00D0E0F8D0E0F9D0E0FAD0E0FBE8C0E0C0D8
:101F1B00F0021ED95016E9F8D083D082D0E0F9D068
:101F2B00E0FAD0E0FBC082C0830220B4BBFE16E90E
:101F3B00F8D083D082D0E0F9D0E0FAD0E0FBC082B9
:101F4B00C0830220C622D083D082F8E4937012742F
:101F5B000193700DA3A393F8740193F5828883E426
:101F6B00737402936860EFA3A3A380DF8A838982D3
:101F7B00E473EC8EF0A4CCC5F0CCCDF8EFA4CEC5B9
:101F8B00F02DFDE43CFCE8A42EC8C5F03DFDE43C7F
:101F9B00FCEFA4FFE5F028FEE43DFDE43CFC22E76A
:101FAB0009F60870FA8046E709F20870FA803E8855
:101FBB00828C83E709F0A370FA807EE309F6087040
:101FCB00FA8076E309F20870FA806E88828C83E3DC
:101FDB0009F0A370FA806289828A83E0A3F6087005
:101FEB00FA805689828A83E0A3F20870FA804A80CD
:101FFB00D280FA80C680D4806580F28031801080D8
:10200B00A680EA809A80A880DA80E280CA80318933
:10201B00828A83ECFAE493A3C8C582C8CCC583CC6F
:10202B00F0A3C8C582C8CCC583CC70E9800D89826A
:10203B008A83E493A3F60870F9ECFAA9F0EDFB227E
:10204B0089828A83ECFAE0A3C8C582C8CCC583CC4D
:10205B00F0A3C8C582C8CCC583CC70EA80DD898269
:10206B008A83E493A3F20870F980CE88F0ED240202
:10207B00B4040050C4F582EB2402B4040050BA231C
:10208B0023458223901FFA73ECF608EDF608EEF663
:10209B0008EFF622ECF208EDF208EEF208EFF2226E
:1020AB00E6FB08E6FA08E6F922EBF608EAF608E999
:1020BB00F622E2FB08E2FA08E2F922EBF208EAF276
:1020CB0008E9F222E493FB740193FA740293F92268
:1020DB0041289D004102B200412C6900C123C11966
:1020EB00410415060114004104140141041301C1FC
:1020FB0012011A00011700C113C115C10941256A4C
:10210B00004125D0FF4125C800C108C1074125D199
:10211B00004125D2004125C901C10B41256900C1F0
:10212B0018C10F013000C10CC10D432B0D00000075
:10213B00412B0C00412B100049271A4C6966656C2A
:10214B00696E65004427545A015B0341275C005DAF
:10215B00272D000000000000000000000000000020
:10216B000000000000000000000000000000004123
:10217B00274A004127260041272C00412711004107
:10218B00271300412716004127100041275A004111
:10219B00274D004127280141275200412712FF41BB
:1021AB002714FF412758FF41274B004127170041B8
:1021BB002751004127500041275900412725004155
:1021CB0027150042274E000041272B0041272900ED
:1021DB0041274C00412753FF41275B0041272A0031
:1021EB00412A5201412A5603412A5401412A5703DD
:1021FB00412A5101412A5503412A5801412A5303CF
:10220B0060C824A1006E0076007F00880091009AC0
:10221B0000A300AC00B500BE00C700CF00D800E1A2
:10222B0000EA00F300FC0105010E01170120012853
:10223B000131013A0143014C0155015E0167017007
:10224B0001790181018A0193019C01A501AE01B7BE
:10225B0001C001C901D201DA01E301EC01F501FE74
:10226B000207021002190222022B0233023C024522
:10227B00024E0257026002690272027B0284028CD8
:10228B000295029E02A702B002B902C202CB02D48F
:10229B0002DD02E502EE02F7030003090312031B42
:1022AB000324032D0336033E0347035003590362F4
:1022BB00036B0374037D0386038F039703A003A9AA
:1022CB0003B203BB03C403CD03D603E84128530079
:1022DB00412851004128580041284E0041285A00FE
:1022EB004128540041285D004128570041285900DE
:1022FB0041284AFF41284C0041284B0041285C00F3
:10230B004128560041284D0041285E00412855FFC9
:10231B004128520041285BFF41284F00432BCE0040
:10232B000000412BD100432AC6000000412ACB00FC
:10233B0041285F004128680041286C0041286B0050
:10234B004128670041286200422860000042286E45
:10235B0000004120000041210000412201004122E8
:10236B0002FF4122000060FF20010000000000007E
:10237B000000000000000000000000000000000052
:10238B000000000000000000000000000000000042
:10239B000000000000000000000000000000000032
:1023AB000000000000000000000000000000000022
:1023BB000000000000000000000000000000000012
:1023CB000000000000000000000000000000000002
:1023DB0000000000000000000000000000000000F2
:1023EB0000000000000000000000000000000000E2
:1023FB0000000000000000000000000000000000D2
:10240B0000000000000000000000000000000000C1
:10241B0000000000000000000000000000000000B1
:10242B0000000000000000000000000000000000A1
:10243B000000000000000000000000000000000091
:10244B000000000000000000000000000000000081
:10245B000000000000000000000000000000000071
:10246B0000000000000000000060FF2101000000E0
:10247B000000000000000000000000000000000051
:10248B000000000000000000000000000000000041
:10249B000000000000000000000000000000000031
:1024AB000000000000000000000000000000000021
:1024BB000000000000000000000000000000000011
:1024CB000000000000000000000000000000000001
:1024DB0000000000000000000000000000000000F1
:1024EB0000000000000000000000000000000000E1
:1024FB0000000000000000000000000000000000D1
:10250B0000000000000000000000000000000000C0
:10251B0000000000000000000000000000000000B0
:10252B0000000000000000000000000000000000A0
:10253B000000000000000000000000000000000090
:10254B000000000000000000000000000000000080
:10255B000000000000000000000000000000000070
:10256B00000000000000000000000000412C88006B
:10257B00412B41FF412B3CFFC19FC120422BDE0071
:10258B0000422BE0000060962620000000000000B7
:10259B000000000000000000000000000000000030
:1025AB000000000000000000000000000000000020
:1025BB000000000000000000000000000000000010
:1025CB000000000000000000000000000000000000
:1025DB0000000000000000000000000000000000F0
:1025EB0000000000000000000000000000000000E0
:1025FB0000000000000000000000000000000000D0
:10260B0000000000000000000000000000000000BF
:10261B0000000000000000000000000000000000AF
:10262B00412819285127F800000000000000000085
:10263B000000000000000000E00C02621F01843368
:10264B003444473034050E0418009020DBE47E013F
:10265B0093700122A3FF543F30E509541FFEE4930E
:10266B00A360010ECF54E0B4E03AEFFAEEF9E49335
:10267B00FBA3E493FEA3E493FFA3E493FDC083C009
:10268B0082C001C002C006C007121971D007D00664
:10269B00D002D001D082D083A30FEF70010EDADA13
:1026AB00D9D880A954C025E060105005A3DFFD8068
:1026BB009CA3A3A3DFFDDEFB8093A3A3DFFD808D93
:1026CB0075818C75FF03759E0212192002408102E1
:1026DB0027A49020DBE47E019360F4A3FF543F30EA
:1026EB00E509541FFEE493A360010ECF54E0B4E060
:1026FB000EEFFAEEF9A3A3A3A3DAFDD9FB80D65410
:10270B00C025E0604B5026E493A3F85407240CC873
:10271B00C333C4540F4420C8834004F4568001468D
:10272B00F6DFE480B00102040810204080E493A39C
:10273B00FAE493A3F8E493A3C8C582C8CAC583CAB5
:10274B00F0A3C8C582C8CAC583CADFE9DEE78085A6
:10275B00E493A3F8E493A34003F68001F208DFF4BB
:10276B000226E0788CE4F6D8FD9000007F007E1006
:10277B00E4F0A3DFFCDEFA904FFFA3E583C39420C4
:10278B004011FEAF829020000E0FE48002F0A3DF19
:10279B00FCDEFA1219200226DD22323F241E16110E
:1027AB000E0B09070504030201F0C8A791776760B8
:1027BB004638353230242220140001010202030373
:1027CB0004040505060607075E86725A85597326AB
:1027DB0027702C2B5B7AEF5B1A751A7A1A7F1A8487
:1027EB001A89000DFA20000DDC7000000000020CAD
:1027FB0000013F3F3F04040419E419E919EE19F3F2
:10280B0019F819FD1A071A1689AF5A2D57617665F3
:10281B0020342E323400198519941999199E19A355
:10282B0019AD1AE81AED1AF21AF71AFC1AD41AD9BA
:10283B001ADE1ACA1ACF1B011B061B101B151B1AFB
:10284B001B1F1A391A431AB11AE37F0151DB902867
:10285B0095E0121F51287C04288414288915288E92
:10286B0017289E3028A33428A83628AD3700002817
:10287B00965357EF855780802F5358EF8008535846
:10288B00DF800353587F855890801D5359DF85593E
:10289B00A08015535AFE800D535AEF8008535ABF30
:1028AB008003535A7F855AB07F0CDFFE227F015184
:1028BB00DB902C667401F0902C66E0602EB1BC317D
:1028CB004F902C66EFF031F1313E902891EFF031C3
:1028DB00F1902C66E05401F19960DCA3E0F460D731
:1028EB00EF30E7D3E4902C66F080CC11597F9F3109
:1028FB0036314F902892314D902897314D90289832
:10290B00EFF051D7902890E0F4601BA3E0F4601631
:10291B00902897E0FD541F240FA3F0EDC413540728
:10292B004480902897F022121E48E4E5C820E2FB71
:10293B008FEB2211597FD731367FFF3136315390D0
:10294B002890EFF07FFF3136E5C820E2FBAFEB229A
:10295B007F0151DB302114B1BC314F902C68EFF06B
:10296B0031F1902C68E020E002C221302117313E7A
:10297B00902891EFF199600BA3E0F46006EF30E73C
:10298B0002C22131F1E4FF51DBA221E433FF22909B
:10299B002B53121E70902B53121E4851E7902B573E
:1029AB00E06F6034B1A7315BEF600471B280F73137
:1029BB00E51159902893E0FF71A96007902B53B153
:1029CB00D43136902B53B1CA3136902B53313290D0
:1029DB002B57E0FF51D5D322C3227F0151DBD221EC
:1029EB0011597F063136125175EF70FA902897E026
:1029FB00F4600A902C657406F0F17370FC902895C6
:102A0B00E0121F512A2B042A33142A38152A3D179A
:102A1B002A4D302A52342A57362A5C3700002A4571
:102A2B00435710855780802F4358108008435820F8
:102A3B008003435880855890801D4359208559A0A9
:102A4B008015435A01800D435A108008435A408029
:102A5B0003435A80855AB0902C65740CF0F1737057
:102A6B00FC229029B4121E709029B8121ED9B1A75E
:102A7B00315BEF600471B280F731E5115990289307
:102A8B00E0FF71A960079029B4B1D431369029B415
:102A9B00B1CA31369029B4121E48E480239029BB69
:102AAB00F1A160209029B8121EB9EA494B600F9032
:102ABB0029B8E475F001121EC2121B398001E4FF24
:102ACB00313680D931F1E4FF8006313631F1E4FF44
:102ADB00EFB4010443FE202253FEDF22902B4E1253
:102AEB001E70B1A7315BEF600471B280F771A1600A
:102AFB0007902B4EB1D43136902B4EB1CA31369054
:102B0B002B4E3132314F902B52EFF051D7902B523D
:102B1B00E0FF229029BD121E709029C1121ED9B15F
:102B2B00A7315BEF600471B280F771A16007902948
:102B3B00BDB1D431369029BDB1CA31369029BD31E2
:102B4B00329029C4F1A16011314F9029C1124F83EA
:102B5B009029C2E41251F680E831F1E4FF41DBB178
:102B6B00A7315BEF600471B280F731E511597F013A
:102B7B0031367F03313631F1E4FF41DB902890E0B1
:102B8B0020E01211557F3D31367F2A31367F80315F
:102B9B00367FA651D5227F0151DB11597F03313688
:102BAB00902896E0640222E51530E20EE51520E54B
:102BBB0009E51530E0047F01F1B922902C67EFF0A5
:102BCB0090289EE0640270221155902C67E07FAB39
:102BDB0060027FB9313631F1902C67E090289DF07F
:102BEB0070047F1EDFFEE4FF51DB227A2879957F8C
:102BFB00031260227A28799E7D017F081219D57AFB
:102C0B0028799B7F09F1927A2879997F0BF1929021
:102C1B002899E0FEA3E0FF4E6006BEFF1BBFFF1826
:102C2B0090289EE024FD6003047004F1AB800990B2
:102C3B002899E4F0A37440F090289EE024FD6003F3
:102C4B000470089028967403F080069028967402FE
:102C5B00F0902895E0121F512C7F042C8A142C9293
:102C6B00152C9A172CB0302CB8342CC0362CC837F6
:102C7B0000002CA575FF015353EF8553FD8047755D
:102C8B00FF015354EF800E75FF015354DF8006751F
:102C9B00FF0153547F8554C9802C75FF015355DFB9
:102CAB008555CA802175FF015356FE801675FF01AD
:102CBB005356EF800E75FF015356BF800675FF010B
:102CCB0053567F8556CB31F17F11B1B6E4FF71C6F8
:102CDB0011B89028937402F0902897E0247F600934
:102CEB00047015B1C2740A80067187B1C27458F0B2
:102CFB009028967403F0F1AB902898E0F46002A151
:102D0B00A590289BE0FEA3E0FF64104E7006902870
:102D1B0098740EF0EF64204E7006902898740FF0A4
:102D2B00EF64404E70069028987410F0EF64804E5C
:102D3B0070069028987411F0E4B5070AEEB40106FA
:102D4B009028987412F0E4B5070AEEB402069028A6
:102D5B00987413F0E4B5070AEEB40406902898743F
:102D6B0014F0E4B5070AEEB408069028987415F031
:102D7B00E4B5070AEEB410069028987416F0E4B583
:102D8B00070AEEB420069028987417F0E4B5070AEA
:102D9B00EEB440069028987418F0616A75FF02E54E
:102DAB00E430E10675E40675E40322EF4420F5FEFA
:102DBB002211597F0521367F10B1B690289322122C
:102DCB001E487808121E08E422121E487810121EA4
:102DDB0008E42290275DEEF0A3EFF0A3121E4890BB
:102DEB002765121E70902763E0FFA3E0902769CF41
:102DFB008068902769E0FEA3E0FF4E6063C3EF9409
:102E0B0040EE94004006A37440F0800590276BEFD2
:102E1B00F0F17BFFF155EFF0902765121E48711E04
:102E2B0090276BE0FFC390276AE09FF0902769E043
:102E3B009400F0902765121E6490276BE4FCFDFE56
:102E4B00121CB2902765121E70D16BF17BFD1260C4
:102E5B005FEDF01219DF90275DEEF0A3EFF080929B
:102E6B0090275DE0FEA3E0FF22902C36121ED9F1D5
:102E7B0038EF240812333EFC7A2779DCF1537402C5
:102E8B00F0711E9027DC123A799027EFF1467A27E2
:102E9B0079E1F153740EF0711EF15CEE3480123354
:102EAB0041F1319027E3F1667F0F7E1DF116F14C56
:102EBB00C006C007F15CE43EF12A9027E5F166D02D
:102ECB0007D006F116F14CC006C007F15CEE34805A
:102EDB00F12A9027E7F166D007D006F116F14CC026
:102EEB0006C007F138F1329027E2E02400FE90276C
:102EFB00E1E034E8902763F0A3CEF0D007D006F1E1
:102F0B0016121C6845F0C37001D322B1DE902C362B
:102F1B00121EB9EE8FF0121C93902C36021EB9FEC6
:102F2B00ED3401FDE43CFC90275F021E709027D628
:102F3B00E0FEA3E0FFE4FCFD9027F3121E64021CED
:102F4B00B2121C68FFAEF0227B019029C4E4F0A3FF
:102F5B00229027EF121E48E42FFF22E0FFA3E09000
:102F6B002763CFF0A3EFF022902C65E014F0E02262
:102F7B007B017A27796C90276BE022B1A7315BEF4D
:102F8B00600471B280F7227B017D020219D5F090AB
:102F9B002890E0FFF42274FFF5F0121C5245F0224A
:102FAB009028997401F0A3E4F022EFF07F01EF6019
:102FBB000A1242F8E4FD124D068009F1D212477550
:102FCB00E433FF227F0122F1DDEF700512430A800B
:102FDB00F622E4FF1244AAE054F0FEBE40037F0049
:102FEB00220FEFB403EE7F0122E4FF41DB90289226
:102FFB00E0121BA1902897E0110F902898E0900009
:10300B0002021BB3900001021BB390292B1257DB5A
:10301B00902931121E7C000000019029357401F0BB
:10302B00F5FFE5D554C07005124FAB5002C322E437
:10303B00F5FF53967F75FF0175D504D1EC75FF0134
:10304B0043D508E4F5FF5394FBF5FF53847FF5FF5D
:10305B007598FF90292FE5F4F075F49C75FF01A38B
:10306B00E5E4F075E4257B017A2979351257AC90AC
:10307B002935E064016002213CF5FF90292E741480
:10308B00F0902931316BFF7801121E1B9029311200
:10309B001E70E5A730E1FB43A702902931316BFF8E
:1030AB00E5A730E005E47B018002E4FBFAF9F8EFD9
:1030BB004BFFEE4AFEED49FDEC48FC902931121E08
:1030CB007090292EE014F070B8902931316BFF7895
:1030DB0010121E087B6D7A4E79C67841121CBFEF19
:1030EB002439FFEE34307141FCE4FBFA7901F8121C
:1030FB001D4AEE547FFEE4FDFC125B8E90293131AC
:10310B006BFFEB6FFFEA6EFEE8CDEFCDCCEECCECB8
:10311B00FF90292B12602FEF121BA190292B12600D
:10312B002FED110F90120FE030E606E4F5FF7596C8
:10313B008075FF01E4F5D590292FE0F5F475FF01BB
:10314B00A3E0F5E41258C7902935E0B40103D3800E
:10315B0001C32225E025E02401F582E43412F58336
:10316B00E0FCA3E0FDA3E0FEA3E0229027F1121EFA
:10317B005490281E121E709027F5121E5490282270
:10318B00121E709027F9E493902826F09027FAE40A
:10319B0093902827F09027FBE493902828F0902712
:1031AB00FCE493902829F0D2299027ED121E54901D
:1031BB00281A121E7075FF0243E18012546AF10344
:1031CB0090282F121E7C002DC6C0E4F5FFF5A490AD
:1031DB00120EF0A3F090282A7402F01260A2FFF5F1
:1031EB0095EF14601314601C2402702790281A3179
:1031FB006B91ED902826801690281E316B91ED90E7
:10320B002827800A902822316B91ED902828E09096
:10321B002833F01259F8902833E0700FF5FFF5962C
:10322B0075FF0175D70975F418805B90120EE004D9
:10323B00F090282AE0124F1C90282F316BFF90281A
:10324B002B12606FC3121DF7500A90282B316BFFA6
:10325B00A3121E70902833E0FF125879902829E0B2
:10326B00FFA3E0FDA22992271259A6A3316BFF9071
:10327B002B63121E7090282AE0FF915190282AE0B0
:10328B00315EFF1257E4126092600221E67402F085
:10329B001260A2F595E5F45407701690282F711F54
:1032AB0091E790282A91D7121E70EB315EFF1257CF
:1032BB00E412609270DA75FF03759580F1F64003A6
:1032CB0043F420A22992281258D890282F316B242E
:1032DB0020FFEE344E7141FCE4FB7A04F9F8712FB8
:1032EB0091E7C226124A0BE4F5FFE5BD54F84404FE
:1032FB00F5BD9012137401F07E127F01E4FDEF2DEA
:10330B00F582E43EF583E0FC901213E02CF00DED1A
:10331B00B412EB22FF7E04FDFCE0F8A3E0F9A3E07E
:10332B00FAA3E0FB121CBFE47B7DFAF9F8121D4AED
:10333B00EF2401FFE43EFEE43DFDE43C22902A8DA8
:10334B001248F3902A937401F0C22A1247DB91FBC7
:10335B005005E5FC20E6F7B1EEBF0108E4F5FC757E
:10336B00FC408007B1EEBF0202D322F1E8902A8E17
:10337B00E0FF125B9B75FF0153D5DF53FAFB902ADD
:10338B008DE0FF124D82902A8EE0902A8DB4080AB0
:10339B00E0315E2452713EFC8004E0315EFF125737
:1033AB00E4902A8FE0FF125BF475FF0175FF037544
:1033BB009B041247DB75FC42E5FC20E10491FB40CA
:1033CB00F4902A90E0F075FF03E59B20E70491FB56
:1033DB0040F4E59B20E70D75FF03759B1F12546AA4
:1033EB00D22A804F91F41257AC902A8EE0FD9012A6
:1033FB000FE05D701C902A8DE0FF91F4125A05903E
:10340B00120FE0FF902A8EE0FEEF4E90120FF0515C
:10341B00FD124B507B017A2A7991125783500FC3BF
:10342B00902A92E09420902A91E0940340E691F444
:10343B00125820D1F3302A02614E902A93E0B40146
:10344B0003D38001C322902B62EFF0E4A3711F9191
:10345B00E7902B6291D7121E70901210E0FF6480E0
:10346B006069EFC3947F5030EB91D9C083C0823138
:10347B006BFFEEC0E0EFC0E0901210123DFDFBCAF7
:10348B00EECAEA3395E0F9F8D0E0FFD0E0FE123F48
:10349B0073ED99FDEC98802B902B62E091D9C08352
:1034AB00C08212606F901210E0F40475F004A4FF58
:1034BB00AEF0EE3395E0FDFCEB2FFFEA3EFEE93D6F
:1034CB00FDE83CFCD082D083121E7022E0FB25E08D
:1034DB0025E02401F582E43412F58322FC78010205
:1034EB001E08FF90282B021E707B017A2A799322EB
:1034FB0075FF03E591C330E701D322C21BE4902B88
:10350B00F1F0C21CA3F0A3F075FF01E5D520E70293
:10351B00C322C22C125487201B02A1B853F4DF9094
:10352B002BF1E0FF124D8275FF0143D810301C05C3
:10353B0043F440800353F4BFE4F5FF53F5F0902BB5
:10354B00F2E0FAA3E0FBEA42F5EBF5F6D22C1254CB
:10355B00877FC8B1C6E4F5FFE59320E60491FB40F5
:10356B00F4301C55E5F430E3047D288010E5F4308D
:10357B00E2047D288007E5F430E1027D28D1FC7F51
:10358B0028B1C691FB40FC7F78B1C691FB502AF164
:10359B00EF50F8125BFAEFC39D50F0F1EF50ECE5F2
:1035AB00F720E5E7C22C125487D1FC80DE53F4BF21
:1035BB00F1F6400543F420F1E8D3227E00B1D1753A
:1035CB00FF034391802275FF03D3EF9402EE940027
:1035DB00400874FE2FFF74FF3EFEEFF592EE540F82
:1035EB00F591227FFAB1C6E5FC30E60491FB40F77A
:1035FB00E5FC30E6037F032275FF01E5D530E603DA
:10360B007F0222E5D57F0030E7027F0122E4902B79
:10361B00A6F0A304F0E4902BA9F0E5FA30E1FB75DA
:10362B00FF01E5D530E7037F0022E4F5FF75E508E0
:10363B00F1E8E5D530E61A75FF01902BA8E5DAF035
:10364B00E4F5DA75FF01E5D630E3FB902BA97401A5
:10365B00F075FF03759B0475FC4175FF03E59B300B
:10366B00E7FBE4FB75FF038B95EB315EFF1257E431
:10367B000BEBB403EF75FF03759580E4F5FF758EC7
:10368B00C8124B5075FF0153D5FBD1FC7F14B1C64B
:10369B00D1F375FF0143D504902BA9E07008D1FC41
:1036AB007FC8B1C6D1F37B017A2B79A71258209032
:1036BB002BA7E0902BA67006E04404FF8002E0FFEE
:1036CB00902BA6EFF090120EE0B4010675FF0143AC
:1036DB00D81075FF01902BA8E0F5DA902BA6E0FF30
:1036EB00227F3FFEB1D1B1CA75FF03E59120E7FB05
:1036FB002275FF03E4F5912212608853DB7F75FF7F
:10370B000175D5027F14B1C6D1F312608843DB80FB
:10371B0075FF01E4F5D522CDEFCDCCEECC12579849
:10372B00AB94EF4B1257A4CBEFCBFAE59130E71EDE
:10373B0012579BA994E9F582EF4582FFEB2DF58299
:10374B00EA3CF583C3EF9582E5F0958340DDE59187
:10375B0020E708CEECCECFEDCFD1EF22902BAEEF02
:10376B00F0A31257DB75FF01B1EEEF64016002C3EA
:10377B0022E5F430E602C3227FE87E03B1D1B1CA61
:10378B00125C70400122C22B124731902BAEE0FF2E
:10379B00124D8253F4DFD22B1247317F787E00F12A
:1037AB002275FF0153E4BFE5E430E7FB125C217F98
:1037BB008A124B7230E60612602CE4800875FF010A
:1037CB0012602CE5D9121BA175FF0143E440F1F601
:1037DB00400343F420125C70400122D32275FF0199
:1037EB0053D8EF2275FF01E5E4332290120EE0D39C
:1037FB00940122E075F002A42481F9740F35F07B5B
:10380B0002FEAF01E4FCFD022AE735F07B02FEAFBE
:10381B0001AD52AB05E4FCFD902B57EBF002299A5E
:10382B00902AEA114AC007902AEA121EB9902AED93
:10383B00E0FF9029C4E4F0A3EFF0D007022B1E1297
:10384B001ED9E4FCFD22902A73114AC007902A73FB
:10385B00121EB9902A76D12BD0073174121ED99033
:10386B002924121EB9902927F166902920121E488F
:10387B00D1D25002212A90289AE024FFFF90289958
:10388B00E034FFFEE4FCFD902920121E64121DDCC7
:10389B00902929EEF0A3EFF04E6039312CC390281C
:1038AB009AE09FFF902899E09EFE902929F0A3EFC4
:1038BB00F090292731839FEC9E5006A3ECF0A3EDEB
:1038CB00F03135121EB9E94A6004312C80447E0078
:1038DB007F00803E902927E0FEA3E0FF4E603E90E4
:1038EB0028993183EF9DEE9C400A902929ECF0A397
:1038FB00EDF0800D902927E0FFA3E0A3CFF0A3EF1D
:10390B00F03135121EB9E94A6004312C80047E0077
:10391B007F00902925EE8FF0121C3C80B7D322C379
:10392B0022902929E0FEA3E0FF22902924121EB940
:10393B00902929E0FFA3E09029BBCFF0A3EFF090F3
:10394B002920121E48122A6D902929E0FEA3E0FFC0
:10395B00C3902928E09FF0902927E09EF090292022
:10396B00121E64E4FCFD121CB2902920121E7090F2
:10397B0029242275F004A4FFE0FCA3E0FDD32290E0
:10398B0029A0121ED99029A3ECF0A3EDF09027F7F4
:10399B00E070024157515D704D516D51665047516A
:1039AB0076A3122F46E4FB7A18F9F8C3121DF750D1
:1039BB00359029A5121E64C3E49BFF74189AFEE48C
:1039CB0099FDE498FCE49029A18FF0121C3CC39064
:1039DB0029A4E09FF09029A3E09400F09029A51270
:1039EB001E7C000018005176A3122F469027EF1271
:1039FB002F469027D8121E64D3121DF74049D1C20F
:103A0B004024E4516D5166403E9029A3E0FEA3E0B3
:103A1B00FBE49BFF74A09EFE74019400FDE49400F4
:103A2B00FCA3516650219029A5121E489027EF1236
:103A3B002F46C0079029A0121EB99029A3D12BD0D5
:103A4B00071165E4338001E49029A9F09029A9E0DE
:103A5B00FF22E4FFFE7D02FC9027D8121E64C302F6
:103A6B001DF7FF7E18FDFC9029A5229029A3E0FEEF
:103A7B00A3E0FFE4FCFD22902915ECF0A3EDF0EFA1
:103A8B0024FF922F302F02613EEB902915317E9F40
:103A9B00EC95F040037F0122EB75F004A42DFFECB5
:103AAB0035F0FED3EF94F4EE940140037F0322EB49
:103ABB00D394FA400E75FF0275AAFA902BEC74FAA8
:103ACB00F0800A75FF028BAA902BECEBF090291576
:103ADB00318394E8EC94034009D138902BEAD11A46
:103AEB00801B75FF02902915B1DECEC313CE13D800
:103AFB00F9540C42A7902BEAECF0A3EDF090291FA0
:103B0B00E0902BEDF090291CE07002A3E0700F9079
:103B1B002918E0B4010890291CE4F0A304F0902BC1
:103B2B00ECE0FF7E007C007D1C121BD5B1B4502055
:103B3B007F022275FF02E4D12275FF0285A7A775CC
:103B4B00FF02B1BCEF7802CEC313CE13D8F9F5AB9D
:103B5B0075FF02E4F5A575FF02902918E05403C424
:103B6B003354E045A5FF90291BE05401C433333394
:103B7B0054804FFF902919E05401C454F04FF5A520
:103B8B0075FF0290291EE05401C454F0FF90291ACE
:103B9B00E054014FF5A675FF0290291CE0FEA3E04F
:103BAB00FFF5A975FF0253A7CF75FF02F1835430C0
:103BBB0042A775FF0243A5017F0022902B99EEF0DF
:103BCB00A3EFF0302F02A149902BEAE0FEA3E0FF18
:103BDB00902B9AE02FFD902B99E03EFCC3ED94E8DF
:103BEB00EC94034002D11A902B99E0FCA3E0FD4C1E
:103BFB007006A3F0A3F08008902B9BEEF0A3EFF0E0
:103C0B00B1CCCEC313CE13D8F97802C333CE33CE97
:103C1B00D8F924E8FFEE3403CFC39DCF9CAB07FA52
:103C2B00902BEDE0F9B1C0D3EB9FEA9E4027B1CCCE
:103C3B00CEC313CE13D8F97802C333CE33CED8F913
:103C4B00FFE9FDC374EE9DCD74039400CDC39FFBC0
:103C5B00ED9EFA800CB1F2FFC374E89FFB74039ED8
:103C6B00FAB1CCCEC313CE13D8F97802C333CE330B
:103C7B00CED8F9B1AF503DB1FAFDAC06C374F89B89
:103C8B00FF74019AFE121BE7A907902B9DE9F0B177
:103C9B00FAFDAC06E9FF7E00121BD5EFB1AF500663
:103CAB00902B9DE004F0902B9DE0D39407400A7479
:103CBB0007F08005E4902B9DF0B1BCF173EF780217
:103CCB00CEC313CE13D8F9FF902B9DE0FE902BECB7
:103CDB00E08EF0A4FEC3EF9EF9902BEA317E9FECB1
:103CEB0095F04012ED2403FFE43CFEEF7802CEC3C7
:103CFB0013CE13D8F9F975FF02E5A530E0037F0168
:103D0B002275FF02902B9DE025E0540EFFE5A65493
:103D1B00F14FF5A675FF02EBD12275FF02EA5403B2
:103D2B0042A775FF02902B9BB1DECEC313CE13D8E7
:103D3B00F9540C42A775FF02AF018FAB8064C3909F
:103D4B002B9AE094E8902B99E09403401775FF01B0
:103D5B0053CBBF43B040D13875FF0275AAFBE4FFCC
:103D6B00D105803E75FF02E5A520E1047F01D10559
:103D7B00E5A530E0037F012275FF0253A6F175FF25
:103D8B0002902B99B1DECEC313CE13D8F9540C424B
:103D9B00A775FF02B1F27802CEC313CE13D8F90484
:103DAB00F5AA61BD2BFFEE3AFEC3EF94F8EE94013A
:103DBB0022902BEDE0FFC374EE9FFF74039400FE83
:103DCB0022902BEBE02403FF902BEAE03400FEEF74
:103DDB00780222E0FEA3E0FFF5AC75FF0253A7F3D8
:103DEB0075FF02EF780622902B99E0FEA3E022905C
:103DFB002BECE075F004A4AEF022EFB4010A75FFD2
:103E0B000243A50243A5012275FF0253A5FD2274AF
:103E1B0003F0A374E8F022F5AD75FF0253A7FC2263
:103E2B00E0FFA3E0902927CFF0A3EFF02275FF026C
:103E3B0075ACE875FF0253A7F375FF0243A70C227D
:103E4B00902C3BEEF0A3EFF0F1A1902C3B31839F34
:103E5B00EC9E5009C3EF9DFFEE9CFE8019902C3B0E
:103E6B00E0FCA3E0F4FDECF4FCED2401FDE43CFCF0
:103E7B00ED2FFFEC3EFE22902C63EFF0E4A3F090CD
:103E8B0027F7E06021515D7008D1B77E777D008008
:103E9B000AD1C25011D1B77EFF7D017C0012299A45
:103EAB00E433902C64F0902C64E0FF22902C63E0C0
:103EBB00902B57F07FFF229027D8121E48E4FBFA75
:103ECB007904F8D3021DF79027AC121E709027B01F
:103EDB00121ED9E49027D3F0D39027B4E0941E9010
:103EEB0027B3E094004001227B017A2779B5902714
:103EFB00B3E0FFA3E09029C4CFF0A3EFF09027AC81
:103F0B00121E48122B1E9027B0121EB9E94A600AE6
:103F1B009027D3E0F582F17B80027F009027D3E0DE
:103F2B0024B5F582E43427F583E06F6002C3229059
:103F3B0027D3E004FFF0D39027B4E09F9027B3E0A2
:103F4B00940050C222902A7A114AC007902A7A1202
:103F5B001EB9902A7DF166D007C1D2E0FFA3E09095
:103F6B0027B3CFF0A3EFF022C3EF9BFFEE9AFE2215
:103F7B00758300121B52FF22EEC4F854F0C8EFC435
:103F8B00540F48229002BDE0FEA3E0FFD14BD3EFCC
:103F9B0094C8EE940022A2AFE433FFC2AF90270A7D
:103FAB00E0FCA3E0FBAA04EF24FF92AFAE02AF0349
:103FBB0022E5F130E40F75FF0175FF015385F075B4
:103FCB00FF018F862275FF01EF540FFDE58554F03D
:103FDB004DF58575FF01F183F58622E4F97D0CAC77
:103FEB000109EC90281593FC0FEFAA0670010E1433
:103FFB00F5828A83ECF0DDE77F03228F828E83E4E8
:10400B00F0A37404111974181119A3E4F022F08FA2
:10401B00828E83A3A322122BF6F1F21219BC125239
:10402B00D79002B3E064017F0060027F01121A2572
:10403B00121A2A12198F1260057A0279B6121962B6
:10404B00125066FE4FFDA3E0FC4DFDA3E0FB4D605F
:10405B000BEE5FFFEC5FFFEB5FF47003124FF7901B
:10406B00121CE0FF540324B6F582E43402F583E01E
:10407B006F9002B1F02275FF0275E404E4F5E4C21F
:10408B001175FF02901215E0603CE5E654036401E4
:10409B007034121A4D1254074020901222E0600D1A
:1040AB00E014F0700812276EE4901215F0901215C0
:1040BB00E0700221491248AD214912276ED211E45A
:1040CB00901215F0807812276E12564E9002B3EFB5
:1040DB00F0901200E0B47A14901214E0B49C0D909E
:1040EB0002B3E0FF64056004EFB4032EE49002BC5E
:1040FB00F09002BCE0FFC394405013E42FF582E430
:10410B003412F583E4F09002BCE004F080E39012EB
:10411B0000747AF0901214749CF01219DA7B017A05
:10412B001279107D017F011219D57A1279117F2135
:10413B001260227A1279127D017F221219D5121A7E
:10414B005212564E1251349002B3EFF01219C6129E
:10415B0050EF9002B3E0FFB40602800C3011047FE5
:10416B000280059002B3E0FF121A93EF24FFB39283
:10417B002375FF0253E6BF9002B3E064016005E4D0
:10418B00901215F0125181121A571121901215E04D
:10419B00700F20230C121A987B017A2579D4121AEE
:1041AB000C90121DE030E00280033011057F0112EC
:1041BB002FB9D2AF3023771252B912494D121AAC24
:1041CB001219D040F29002B2E06041F10AEF700593
:1041DB00123F8F4037E51470FCE51520E502F175B1
:1041EB0012195DEF70FA12561350051255FF500558
:1041FB007F01122BC69002B2E0B40204E4FF8009E7
:10420B009002B2E0B403057F011248CA710AE515AA
:10421B0030E1A4F11C4002E4F0E51520E50751F86C
:10422B007D01124D069002BC51FBF1D380891250D7
:10423B0087124FDE5003124FF79002B2E0605D9091
:10424B00256AE07057F10AEF7005123F8F404DE57C
:10425B001470FCE51520E50990121DE020E002F139
:10426B007512195DEF70FA12561350051255FF5067
:10427B00057F01122BC69002B2E0B40203E4801852
:10428B009002B2E0B403047F01800E9002B2E0B45E
:10429B00050A9012157401F0FF1248CA1252B91296
:1042AB00494D121A9D9002B0E07004710A801512EC
:1042BB004F24FF9002B0E0FEC3EF9EC39406400272
:1042CB00E4F0D2AD121807E51530E119F11C4002EC
:1042DB00E4F0E51520E50751F87D01124D0690023B
:1042EB00BC51FBF1D3121A3E1250DA41399002B491
:1042FB00E075F0AA9002BF121EADAF82AE8322E42E
:10430B009004491255E975F0E5E56091AEE054F083
:10431B00644070028166E4FE75F0E5EE91AEE0FD5F
:10432B00B4010990044AEEF0E4FF8023EDB4020BD4
:10433B0090044AE0B4FF04EEF0800F75F0E5EE91C7
:10434B00AEE054F0FDBD80027F010EEEB403C9EF69
:10435B00600690044A74FFF090044AE0F470028106
:10436B0066124FB350028166E51530E1028166900B
:10437B00044AE0900004D1EF30E408900006D1F835
:10438B00549FF090044AE09000B8D1EF540FFEBE5A
:10439B0005089000BCD1F830E11590044AE090007C
:1043AB0003D1DFE020E5249000BBF101B4FF1C90AA
:1043BB00044AE0900005D1D9C083C082E04401FFDC
:1043CB00A3E0D082D083CFF0A3EFF090044AE0FDBE
:1043DB0075F0E5900005121EADE0FEA3E0FFC006F0
:1043EB00C007ED75F0E5A424B3F9740035F0FA7B42
:1043FB0001C002C00190044AE0FF9000D9D1D9E07E
:10440B0090042CF0EF75F0E5A42409F9740035F055
:10441B00FAA3121ED990044AE09000B2D1DFE090CB
:10442B000430F09000DAF101900431F0E4A3F0D005
:10443B0001D002D007D00691B4502090044AE0F589
:10444B006075F0E591AEE04440F09004497401F0E2
:10445B00902211F0E51530E202D322E51530E23857
:10446B007F04D1E675F0E5E56091AEE0FF54F064B2
:10447B0040702075F0E5E56091AEEF540FF075F0EC
:10448B00E5E56091AEE04480F0E5601255DA121973
:10449B008A80057F01122FB9900449E024FF227511
:1044AB00F0E5EF900001021EAD900427126038C2B8
:1044BB00EBE5146002C15DE51530E202C322124F39
:1044CB00AB5004C22BF131F1A1E5D120E0FBE4F5B7
:1044DB0010C211900428E05407C39403E4940050D5
:1044EB0022900430E0FF90042CE02FFFE433FED346
:1044FB00EF9440EE648094804009431504A210921F
:10450B00EDD32290042D121EB9CFE9CF8A118F1251
:10451B00900430E0F516AE11125715900429121EB7
:10452B00B98B1C8A1D891E90042CE0F51F90042763
:10453B00E0FCA3E0FD54606032900431E0FF124ECA
:10454B00B7D16B121B39FB7A00900425E0FEA3E078
:10455B00FF7C007D17121BD5EF2BFFEA3EFEEF24ED
:10456B0014FBE43EFA7D027F01C144900427A3E0D3
:10457B005407900414F0751408900429121EB912F4
:10458B004D9D90042CE0FFAD16124F08900414E0E3
:10459B00640370277B01FDD168D1B55007D16B74D3
:1045AB0001121B7FE4F5FF124F2DD16B121B392427
:1045BB0028FBE433FA7D03E4FF807E900414E0646F
:1045CB00027021D165D1B54007D16B74FF121B7FEF
:1045DB00124F8AD16B121B392414FBE433FA7D0280
:1045EB007F018055E4D165D1B54007D16B74FF12C3
:1045FB001B7FE4F5FFD1AD44104E7F0560027F0AAF
:10460B00EF547FFFE5D254804FF5D2E4F5FF43D250
:10461B0080D16B121B39FD7C00D1AD44104E7E0056
:10462B0060047F0A80027F05EF25E0FFEE33FEEF8B
:10463B002DFBEE3CFA7D017F011254B0D1ADFF1280
:10464B004DA94006A21092EDC322A21092EDD2EB1F
:10465B00D322A21092EDD2EBC322FB7D01FFD179C5
:10466B00900429121EB9E92407F9E43AFA22E4F579
:10467B00FF75D102E5D120E0FBE4F5FFF5D1EF604A
:10468B0008E4F5FF43D2808006E4F5FF53D27FEBBD
:10469B006006E4F5FF43D104ED6006E4F5FF43D17A
:1046AB000822900427E0FEA3E022121B39FF90049E
:1046BB0030E0FD90042CE02DFDE433FCED2401FDF6
:1046CB00E43CFCD3EF9DEC6480F87480982275F089
:1046DB00E5021EADFF75F0E5021EADC2AFEFF45261
:1046EB0015D2AF22FF75F0E5121EADE02275F0E595
:1046FB00EF121EADE02275F0E5EF121EADE022E4E5
:10470B00FF91AAE060037F00220FEFB403F37F0158
:10471B00227F02D1E69002B4E09002BCF09002B48A
:10472B0004F0C3940222902C6AE5F4F0E0547FF578
:10473B00F47F827E00F1DF1234FB5005E5FC20E6AE
:10474B00F6302B08902C6AE04480F5F4F1DB123440
:10475B00FB5005E5FC20E6F675FF01E5D520E702E9
:10476B00C322E5F4D330E601C322E5147022124FC5
:10477B00A35004C22BF131125463F1A1E5D120E017
:10478B00FB4315205315FEE4F510A21092EDD32236
:10479B00C322C22BF131E4F5FFE5D154FE4402F5FF
:1047AB00D122F19DE5D120E0FBE4F5FF75D9019015
:1047BB000413E07F00B403027F01124D82124CF907
:1047CB00D22BF131E4F510229002B5E0FD0219B7BE
:1047DB007FE87E0312574E0235CA75FF0275E4045B
:1047EB0075E40175E40222E4FF91AAE4F00FEFB443
:1047FB0003F7E4F5602275FF0275E404E4F5E422A7
:10480B0090043311F390121DE05430600611F050F8
:10481B0002C322900433E0B4040BA311729004334F
:10482B007403F08025900433E06405701890121D1A
:10483B00E090043430E50611727F1F8004117AE496
:10484B00FF11E88005900434117A900433E0900254
:10485B00B2F0900435E0901222F0123FA19002BD0D
:10486B00EEF0A3EFF0D322E0FB7D017F018006E0A9
:10487B00FB7D01E4FFEB600875FF0153CDFD800666
:10488B0075FF0143CD02ED600553FBDF800343FB56
:10489B0020EF600775FF0243E1402275FF0253E1F1
:1048AB00BF2290121DE07B027D0130E5087F0111D4
:1048BB00807F1F8006E4FF1180E4FF11E87F014336
:1048CB00FB1075FF0243E640EF600D75FF02E5E15B
:1048DB0020E7FB43FB0D800343FB0E80FE75FF02BD
:1048EB008FE32280F8A21122EFF0A3EDF0A3EBF0FF
:1048FB0022902B5DEEF0A311F37FFFA3E0F9E9C348
:10490B00940C5022E9313FE0FCA3E04C7015AF0151
:10491B00902B5DE0FC716BA3E0902B5CF031BDE95B
:10492B0004FF220980D8227BFF7D64902B617402E7
:10493B00F080BEEF75F007A424B6F582E43426F5BB
:10494B008322900000E06059E014F0E4F55FE55F2E
:10495B00C3940C50EDE55F313FE0FEA3E04E603DAC
:10496B00E55F313F717B703531ADE0FF6008F4607E
:10497B000531ADE014F031ADE06012E55F710DE093
:10498B00FEA3E0FFE55F313FEEF0A3EFF051F84EF1
:10499B00600851F8AA06F9121F77122BB2055F8037
:1049AB00AD22E55F75F007A424BCF582E43426F54F
:1049BB008322902B59ECF0A3EDF0AA07AF03EF7015
:1049CB00010FEF75F00AA4FFAEF0EA710DEEF0A344
:1049DB00EFF0EA313FEEF0A3EFF0902B5CE0FFEA53
:1049EB0031AFEFF0902B59E0FEA3E0FFEA75F00733
:1049FB00A424BAF582E43426F583EEF0A3EFF0227B
:104A0B00902834121E70E4F5FF75BB0575BB8575D8
:104A1B00FF0175D5022026051236EC715075FF018A
:104A2B0043D52030260241D3E4F5FF538EF7438E56
:104A3B00077D04E4F5FF8DBCF5FF43B102E5B13012
:104A4B00E2FBE4F5FFAFDFEFFEACDEECFBEBFFEDE3
:104A5B0025E02432F582E434285103E4F5FFF5FF19
:104A6B0053B1FD0DEDB40CCB90283412316BFF78A4
:104A7B0009121E08A3EEF0A3EFF0E4FDED25E024F0
:104A8B003CF582E43428F583E0C313FAA3E013FB6F
:104A9B0051EDF583E0C313FEA3E0132BFFEE3AFEBB
:104AAB0051ED5103ED240490120DF0EDC39407501A
:104ABB0017CFEDCF0DEF51EE7105FFC3902839E005
:104ACB009F902838E09E50B4E4F5FF758EC8F5FF33
:104ADB0090120DE0F5BCE4F5FF75BB8075FF01F599
:104AEB00D522ED25E0243AF582E4342822E55F75E2
:104AFB00F007A424BAF582E43426F583E0FEA3E0A4
:104B0B0022EF75F007A424B8F582E43426F583224E
:104B1B007148500D710CE4F0A3F0313EE4F0A3F0BA
:104B2B000EAF062271485012710CE0FCA3E0FD4C55
:104B3B006008313EECF0A3EDF00EAF0622E4FE1F51
:104B4B00EFC3940C22E4F5FF75C2E17F1E71723046
:104B5B00E707E4F5FF75C2A122E4F5FF75C28122D8
:104B6B00A3E0FDA3E0FB22FE12372290120FE022FE
:104B7B0074FFF5F0121C3C45F022C0E0C0F0C0837E
:104B8B00C082C0D075D008C0FF1235EE8F18E51863
:104B9B006402704FE51424F8603F2407600281D74C
:104BAB00900425717B7028AB1CAA1DA91EB19DAD6D
:104BBB0016AF1FF108E4FB7D01FF12467975FF006C
:104BCB00F12D43FA0475FF0091FF75140881D7434B
:104BDB00FA0475FF0091FF81D7C2EB7514004315E2
:104BEB000481D7E5186401600281D7F11540028179
:104BFB00D7E510702A851282851183E090044BF063
:104C0B00E0FF64556004EFB4540AD211F12690040E
:104C1B0024F081A675100275FF0075D90881D7E5C0
:104C2B00106402705591EDE090044BF0125BD0F1E3
:104C3B00CA900413EFF090044BE0FFD39409402586
:104C4B00900413E0D39402400CEFD394AA7F00405E
:104C5B00027F01800D90044BE0D394407F00400213
:104C6B007F01EF600491E4803290044BE0FFF51676
:104C7B0075FF008FD97510038052E5106403704CDB
:104C8B0091E475FF00900413E0C39403E5D3500542
:104C9B005402FF80035401FFEF60051247AD802CD7
:104CAB00C22B12473175FF001247A4E5D120E0FB60
:104CBB00C2EB431502751000900413E0B403071503
:104CCB001691EDE516F09002B5E516F0D0FFD0D0B9
:104CDB00D082D083D0F0D0E032301105C211123522
:104CEB000622E5122407F582E43511F5832243FAF7
:104CFB0004E4F5FF53D1FD43D10122900439EEF0CA
:104D0B00A3EFF0E514706FF1A35005C22B124731DE
:104D1B00900439E0FEA3E08E11F512AE11AF127DB7
:104D2B00AAB1C0E4F5FF75D901F510E51554216062
:104D3B002BE51530E504E4FFB182E490043BF090E1
:104D4B00043BE004F0123618EF600990043BE0C31B
:104D5B00941040EB7F02121A8E5315DE900413E071
:104D6B007F00B403027F01B18291F9D22B1247313C
:104D7B00D2EBA21092ED2275FF01E5D530E602C30E
:104D8B0022E4F5FF439A80EFF11CE4F5FF539A7F81
:104D9B00D322E4F5FFE9B1E1EA540F42D6224315E1
:104DAB00015315DFB1EAD1664004E4F51422531523
:104DBB00FB91F9D322E4F5FF75D102E5D120E0FB9D
:104DCB00E4F5D1F5FFEFB1E1EE540F42D6E4F5FF78
:104DDB00CFEDCF8FD422F5D7E4F5FF53D6F022EFEA
:104DEB0030E303AF1322AD1B201204EE30E00BE5D2
:104DFB0017C394F05020D1358018E51A6006FDE4F6
:104E0B00F51A8012E517C394F0500BE517540FFFFA
:104E1B006004D124AD07AF0522F196FFC3940E4079
:104E2B00027F0DEF9027A693FF22900415E0FDFF64
:104E3B00C3740ED15FEFC4F8540FC868FFEEC454AF
:104E4B00F048FEE51754F0C39FEE1246D27F005098
:104E5B0002AF05229FFFE49400FE22900437EFF08F
:104E6B00900414E024FD6011047007D1AD7404F0BC
:104E7B008012D1AD7408F0800BE4900438F09004EC
:104E8B00367402F07F01121A8E900438E0FF900402
:104E9B0036E0FDA3E0FBE4902A90F012334850E992
:104EAB00D3229004387401F09004362290043CEF26
:104EBB00F0A3ECF0A3EDF0751401E4FBFDFF12463B
:104ECB00797B017A047916B19DE4FD7F02F108F13B
:104EDB008A9004167455F090043CE0900417F090FF
:104EEB0004147402F090043EE090042530E507E4CE
:104EFB00F0A3743CF022E4F0A374F0F022E4F5FF8D
:104F0B008FD4F5FFCFEDCF8FD522E5F754C024FF1B
:104F1B002233333354F8F5F422C2AD90270AE0A3C1
:104F2B00E022E5D254804414F5D222121B39FF71D2
:104F3B001BE4021BA1902A7F121ED9902A7F121EFE
:104F4B00B9F136AE04AF05902A84E0FDA3E0FBF186
:104F5B007B902A7FF183F16EB4FF04E4121BA1F165
:104F6B006EFF22902A7F121EB9021B39E4FB7D01D2
:104F7B00E4902B61F001FCFF121EB9EF021BA1E4C0
:104F8B00F5FFE5D25480440AF5D222E517C4540F3D
:104F9B00FEEF9027C4932E22C2EBA2ED9210C2ED2E
:104FAB00E5F4C330E701D322F1AB5004F1C3400366
:104FBB00301103D38001C322E5F754E024FF22EF25
:104FCB0024FE600C24FE600580007F01227F0222FC
:104FDB007F032290121CE070111250664FFFA3E06A
:104FEB004FFFA3E04F7003D38001C322E4FF122FC6
:104FFB00B9EF60437B017A0279B611439002B6E0B8
:10500B00C394C040EF7B017A0279B8114311665FFC
:10501B00FFA3E05FFFA3E05FF460EA90121DE030B6
:10502B00E0057F01122FB9E490121CF07B017A028C
:10503B0079B6E0FD1219672290043F121ED9C224E3
:10504B00E4FF122FB9BF010B90043F121EB91230AF
:10505B001592247F01122FB9A224229002B6E0FFF1
:10506B00A3E0229002B1E064AA2411FFF022AE0764
:10507B00116EEE04FEEF8EF084AFF02230220C9016
:10508B00256AE07006FF121A34C222119B0219C165
:10509B00301125124F26FF900424E0FEEFC39E40F3
:1050AB000AEF9ED394024010C21122900424E0F424
:1050BB002FD394014002C211229002BAE0FCA3E06C
:1050CB004C700A9002BAEEF0A3EFF0D322C32290F9
:1050DB0002BAE0FEA3E0FF4E6009CAEECAC9EFC9EF
:1050EB00121F7722E4F557F558F559F55A75FF015C
:1050FB0085FD5375FF0185C95475FF0185CA55752B
:10510B00FF0185CB5622EF3118F0020000901221DF
:10511B00F0902C6922901221E0FFF46005902C692D
:10512B00EFF074FF3118E0FF22901221E0FE6406CD
:10513B00902C696004EFF08008EEF090122174FF60
:10514B00F0902C69E0FF22EFB40109D2AD75FF019D
:10515B0043AE4022C2AD75FF0153AEBF2275C801ED
:10516B0022E5C85402FF75C80222E5C85404FF2289
:10517B00E5C85401FF2275FF02D2ADD2BD75FF0207
:10518B00758E71755D0975FF02E58E546F4480F560
:10519B008E22C0E0C0F0C083C082C0D075D008C0E2
:1051AB00FF75FF02E58E30E42875FF02E58E54EFA4
:1051BB004410F58E900000E004F0E55D30E0020550
:1051CB0031E55D700A755D0990270A31F68002158D
:1051DB005D75FF02E58530E4045102055ED0FFD01A
:1051EB00D0D082D083D0F0D0E032E475F001021C35
:1051FB003C75FF0253857F75FF0243851022AB0779
:10520B00AA0631FCED4C70050DBD00010CD3ED94DD
:10521B00FFEC9403500AEDF586EC4430F585805293
:10522B00D3ED94FCEC940F5017EDAE047802CEC383
:10523B0013CE13D8F9AC06F586EC4434F5858032E1
:10524B00D3ED94F0EC943F5016ECC4F854F0C868CE
:10525B00FCEDC4540F48F586EC4438F5858013ED0E
:10526B00AE047806CEC313CE13D8F9F586EE443CC4
:10527B00F585902C395196D21AE4F55E75FF0243F1
:10528B00854075FF02438580D21922AF03EAF0A354
:10529B00EFF02231FCC219E4F55EC21A2230190D6F
:1052AB0031FCE4F55ED21A75FF0243858022301A79
:1052BB0013E55E600F155E902C39E0FEA3E0FF4E08
:1052CB00600251D022AA06A907021F77E4F55EC23D
:1052DB001A22AF14EFC36001D322EFC3940E500513
:1052EB00900415EFF022E517540FFF22E517C39436
:1052FB00F050205317F0124F96FE740FC39F4005CA
:10530B00EE940E400543170D8003EF4217E517543B
:10531B000FFF227F0022E51754F0C4540F2FFFC359
:10532B00941040027F0FEF9027B493FF227E10EE74
:10533B0060091EEE9027B493B507F4EEC3940E40AC
:10534B00027E0DEE9027A693FF22E4F5140247751B
:10535B00C2AFEF4215D2AF22E51520E50812479DEB
:10536B00E5D120E0FBE4F51022900445EFF0C22CD0
:10537B009187D21B900445E0902BF1F0D21CA3E453
:10538B00F0A3740DF0123513E4900446F0124FABFA
:10539B005038900446E07032E5F754C060EF71EC82
:1053AB0071FFBF551171FF90121CE06F9004467096
:1053BB00147402F080D7900446E0B454057433F0B3
:1053CB0080CB9004467401F080C3900446E0B40295
:1053DB0007C22B1247318000123506900446E0FFBE
:1053EB0022E5F720E008E5F754C070F5FF2243F7FC
:1053FB0001AFF92271EC900446EFF0225315FEE554
:10540B001530E5057F01124D82123618EF70FA7FC9
:10541B0002121A8E7F01717490044CEFF0BF0202DE
:10542B00801390044CE0B43311E4F07F017174BF2E
:10543B00020D90044C7401F08005E490044CF09044
:10544B00044CE0700C124FAB5005C22B124731913C
:10545B006390044CE024FF22916A7F08021A8EE5C8
:10546B00FA30E1FB75FC8075FF0153D5EFE4F5FCD9
:10547B0075FC401236FCE5FC20E6FB22AFF4EF5442
:10548B007FF5F4302C05EF4480F5F475FF01E5D57D
:10549B0020E702C322E5F4D330E601C322900425B2
:1054AB00E0A3E0FF22900442EFF0ED24FE6019141C
:1054BB0060262402703BEB2402FFE43AFE7C007D65
:1054CB0050121BD57D60801EB124C333CE33CED892
:1054DB00F9FF7C007D28800EB124C333CE33CED8A8
:1054EB00F9FF7C007D64121BE7900443EEF0A3EF01
:1054FB00F0900442E0B12FC083C082121E6490046E
:10550B0044E02401FF900443E03400FEE4FCFD1270
:10551B001CB2D082D083021E70EB2401FFE43AFE52
:10552B00EF78032225E025E02418F582E43404F516
:10553B008322EFB12F121E48021E2EE4900418B1E5
:10554B005DE490041CB164E4FFFEFDFC90042002BA
:10555B001E70FFFEFDFC021E70FFFEFDFC021E70A6
:10556B00900447EFB1E9FEFD75F0E5ED1244AEE0B6
:10557B00FC700C900448E0B4FF02EDF00F8006ECD9
:10558B0030E0027E010DEDB403DE900447E06401D0
:10559B00600DEFC394025007EE7004A374FFF090FC
:1055AB000448E0FFC39403501FEFB1DA7DE5E4FF3D
:1055BB00121958900447E04410FFA3E0FE75F0E584
:1055CB001244AEEFF0EE80077B007A007900227573
:1055DB00F0E5A42401F9740035F0FA7B0122F0A365
:1055EB0074FFF0E4FF22E4021BA1121B39540F02DB
:1055FB001BA180F67F017E009017FCE4935EFE7486
:10560B0001935F4E24FFB322900001740193B40009
:10561B0007E493B41802C322D322EF7011ED600795
:10562B0075FF0143AE012275FF0153AEFE22EFB4AD
:10563B000110ED600775FF0143AE022275FF0153A8
:10564B00AEFD2275FF02E5E630E2037F0322E5E6BD
:10565B0030E3037F0022E5E630E1037F0422E5E639
:10566B007F0530E0027F0122EF600775FF0253E6F2
:10567B00BF2275FF0243E64022EF14600F14601443
:10568B00240270188B8075FF018DFD228B9075FFA6
:10569B00018DC9228BA075FF018DCA22AF038FB07C
:1056AB0075FF01AF058FCB22902A87121ED9EF14FD
:1056BB00601414601E24027027D1F9E580D1FF120B
:1056CB001EB9E5FD8025D1F9E590D1FF121EB9E594
:1056DB00C98018D1F9E5A0D1FF121EB9E5CA800B1C
:1056EB00D1F9E5B0D1FF121EB9E5CB021BA1902A6F
:1056FB008A021EB9121BA175FF01902A8722E4F5BD
:10570B00FFAF9122E4F5FFAF9222E4F5FFEFF5D85E
:10571B00E4F5FF53D60FEE540FC4F854F0C8E4C4AD
:10572B00540F4842D622E4F5FF8FD422E4F5FFE56F
:10573B00D1540133333354F8FFE4F5FFE5D3540769
:10574B004FFF22902B9EF17B7A2B79A0F183501483
:10575B00902BA0E0FEA3E0FF902B9FE09F902B9E51
:10576B00E09E400B902B9EE0FEA3E0FF1235D12272
:10577B00EEF0A3EFF07B0122F198AD94EF4DF1A485
:10578B008FF0121C93E591C330E701D32275FF0311
:10579B00AF93EF75F010A4FF2224FBFFE5F034FF6D
:1057AB0022902BEEF1DB7F017C127D01E4FEED2ECE
:1057BB00F582E43CF583E02FFF0EEEB412F090126D
:1057CB0013E06F600A902BEE12602FE4121BA122E4
:1057DB00EBF0A3EAF0A3E9F022902BA2121E707556
:1057EB00FF01902BA2A3E0FDA3A3E4FFFEE4FC7852
:1057FB0010121E088FE1902BA2A3A3E0FEA3E4FFDF
:10580B00E4FDFC7808121E088FE2902BA2A3A3A341
:10581B00E0FF8FE322C22575FF03759B1F75FF0306
:10582B0090120FE0FF20E71BE59A540FC394024040
:10583B0012EF4480F0E4F5FF75C2A143FC0475FF41
:10584B0003D225E5FC30E609E59A540FC3940540D5
:10585B00CCE5FC30E611E4121BA175FC80F5FC7560
:10586B00FC40E5FC20E6FB3025031232FD22EF3035
:10587B00E00E43F401E4F5FF43A404F5FF75962411
:10588B00EF30E10E43F401E4F5FF43A408F5FF7597
:10589B009624EF30E20943F402E4F5FF75961EEF10
:1058AB0030E30943F404E4F5FF75961075FF01EF3F
:1058BB005403600475D7122275D72D22E4F5FF75BA
:1058CB0084E6F5FF439404F5FF75981422E4F5FF85
:1058DB0075933F75FF03759A4011C7E4F5FF759CEF
:1058EB0093F5FF75A1A3F5FF758531F5FF75862837
:1058FB00E5FA54304480F5FA75FF0175E74A75FFF8
:10590B000275DF4975FF0143D30475FF0153D3675C
:10591B00E4F5FF53E6BF75FF0175D825F5FF75B5A7
:10592B0003F5FF75B215F5FF75BA02F5FF75AFB349
:10593B00F5FF75CD0AF5FF75CB08F5FF75CA12F5A6
:10594B00FF75BF0EF5FF75CC96F5FFF5BDF5FF7531
:10595B00C281F5FF75AEE1F5FF75DA55F5FF75F50B
:10596B0080F5FF75E903F5FF75E933F5FF75972AA8
:10597B0075FF01759B42759CA4759D29759E487595
:10598B009F2475A11275A312759AF820280CF5FFA8
:10599B0043968090120FE04440F022CCEFCCCFED39
:1059AB00CF74017E00C8EFC8088005C333CE33CE59
:1059BB00D8F9FFCDECCDEF5D601B30271875FF01DB
:1059CB0075DCAD75FF0175DDCDE4F5FF759A74F5EA
:1059DB00FF7594842275FF0175DC5375FF0175DD2E
:1059EB0033E4F5FF759A14F5FF7594042275FF01E6
:1059FB0075E46575FF0175D64722902BAAEDF090E3
:105A0B001211E0FEF46006A3E0FDB4FF0C902BAC8A
:105A1B007418F0A37413F08008902BACEEF0A3ED88
:105A2B00F0121B39640160026168902BAAE0FE64DE
:105A3B00086004EEB40408902BAB7428F080069039
:105A4B002BAB743AF0EF12315EFF121DE9E4716972
:105A5B00EF24D8FFEE343FFEED3493FDEC3416FC0F
:105A6B007B007A80790378001218B6718E902BAD7B
:105A7B00E0FF902BACE0C3124E5FE4FCFD121CBFA9
:105A8B00ECC0E0EDC0E0EEC0E0EFC0E0902BADE08D
:105A9B00FFE4FCFDFE7169D0E0FBD0E0FAD0E0F949
:105AAB00D0E0F8EB2FFBEA3EFAE93DF9E83CF89041
:105ABB002BABE0FFE4FCFDFE121CBFEF2454FFEE0A
:105ACB00340B123341FCE47BA87A16F9F81218B6A2
:105ADB00CBEFCB902BAAE014605E14601B24FE600E
:105AEB000C24FC7078E4F5FF75CE318006E4F5FFED
:105AFB0075CE21F5FF8BCF22E4FAE4F5FFEA2440C3
:105B0B00F5CEE4F5FFEAFFC37407124E5F74232F43
:105B1B00F58274183EF583E47171C39DF5CFE4F5FE
:105B2B00FFEA2448F5CEE4F5FFEA90182371712DB6
:105B3B00F5CF0AEAB408C322E4F5FF75CE01F5FFF1
:105B4B008BCFF5FF75CE0EF5FFEB25E0F5CFE4F52A
:105B5B00FF75CE0FF5FFEB75F003A4F5CF227B6439
:105B6B00FAF9F8021CBF9325E0FDE433FCEB75F06A
:105B7B0010A4FFAEF0121BE7CDEFCDEBFFE4C31388
:105B8B00EF1322C8ECC8C9EDC9CAEECACBEFCB22C2
:105B9B0075FF01E5D530E602C32253FACFEFB40807
:105BAB000543FA308012EFB4040543FA208009EF65
:105BBB00B4020543FA108000D322E5F454181313F2
:105BCB0013541FFF22E5F75406FFBF06037F08227D
:105BDB00E5F75406FFBF04037F0422E5F75406FFE5
:105BEB00BF02037F02227F012275FF018FDA229110
:105BFB0021AFD922E4FFE5F754C0600280F175FFB5
:105C0B0001E5D530E30F1237EF50F371FAEF60EE89
:105C1B001237EF50E92275FF01E4F5EA75EAFF222E
:105C2B0075FF01E5D520E602C322E5FA540360FABD
:105C3B0075FF018FC3D322CEEFCE75FF01E5D520C3
:105C4B00E602C32243FA04E4FDEDC39E50077F55E1
:105C5B00912B0D80F4E5FA543070047F0F80027F96
:105C6B00F0912BD322E5F730E510E5F754C0700522
:105C7B001234FB40F01236FCC322D322E5F7132279
:105C8B00C0E0C0F0C083C082C0D075D000C000C0DF
:105C9B0001C002C003C004C005C006C007C0FF7529
:105CAB008CBE758ADFC28DD28C121AB6D0FFD0078C
:105CBB00D006D005D004D003D002D001D000D0D074
:105CCB00D082D083D0F0D0E032E49027F7F07B0184
:105CDB007A2779DE122FF89027E0E0FBB41122909F
:105CEB0027F3121E7C000078009027EF121E7C0019
:105CFB000060009027D47418F0A3E4F0A3F0A38005
:105D0B00277412D39B50279027F3121E7C0002009E
:105D1B00009027EF121E7C00020000E49027D4F0C5
:105D2B00A3F0A37418F0A3E4F09027F704F09027E6
:105D3B00F7E0FB6017E4FFFE7D02FC9027E0E02418
:105D4B00EFF9F8121E1B9027D8121E70AF0322EF2B
:105D5B00600A75F28075F24043F14022E5F130E7BD
:105D6B000653F17F43F180E5F130E308E5F230E7CC
:105D7B00FB75F2C022E5F130E70653F17F43F1806A
:105D8B0022EF600443F1802275FF01E4F58E53F19D
:105D9B007F22EFB40807B1C94403F58422EFB404A2
:105DAB0007B1C94402F58422EFB40207B1C944011B
:105DBB00F58422EFB4010675FF015384FC2275FFB5
:105DCB0001E58454FC22EF6003D2EA22C2EA227579
:105DDB00F24022E5F2C330E601D322E4F55BF55C39
:105DEB00E5F230E72675F280E5F1AFF330E40775A5
:105DFB005B008F5C8010EF75F010A4F55C85F05B99
:105E0B00E5F2540F425CAE5BAF5C227EFF7FFF225C
:105E1B00EF600775FF014384042275FF015384FB78
:105E2B002275FF0153853FEF428522EFB4010443F6
:105E3B00F1102253F1EF22EFB4010443F10422538A
:105E4B00F1FB22EF600443F1012253F1FE22EFB488
:105E5B00020343F108EFB4010353F1F7EFB4030569
:105E6B0043F101803FEDB4040875FF0143852080A9
:105E7B0014EDB40107D1B35384F78009EDB40205D7
:105E8B00D1B3438408EBB4100875FF015385EF8041
:105E9B000AEBB4200675FF0143851075FF01902BAB
:105EAB00E9E0F58E43F1802275FF015385DF75FF25
:105EBB000122EF5403FFE58954FC4FF58922EF6073
:105ECB0004438904225389FB22AF8CAD8AEFB58C36
:105EDB0004FEEDFF22AF8CEFFEAD8AEDFF22EFC487
:105EEB005430FFE58954CF4FF58922EF24FF92AB55
:105EFB0022EF24FF928E22EF6004438940225389C4
:105F0B00BF22AF8DAD8BEFB58D04FEEDFF22AF8DB4
:105F1B00EFFEAD8BEDFF2275FF01EF4420F5A422C0
:105F2B0075FF0143A4102275FF01E5A45410FF2255
:105F3B00EF24FF92E92275FF01EF600443A41122C5
:105F4B0043A41075FF0243F60222EF600775FF02B0
:105F5B0043F6012275FF0253F6FE22AD07AC067520
:105F6B00FF01ECF5A9EDF5A72275FF01AFA9EFFE37
:105F7B00E5A7FDEDFF2275FF01AFA6E5A570011F9B
:105F8B00EFFEADA5ED24FFFDE434FF4EFEEDFF2249
:105F9B0075FF01EF54C4442AF5A42275FF018FA9A4
:105FAB00AF058FA72275FF01E5A9121BA1902B4B03
:105FBB00121EB9E5A7021BA1EF600775FF0243A5EF
:105FCB00082275FF0253A5F72275FF0243A5042291
:105FDB0075FF02E5A544041313543F24FF22EFF091
:105FEB00A3EDF0A3021ED9121EB9E92402F9E43A7B
:105FFB00FA22A3121EB9E92401227B017A12791C21
:10600B00902AF1021ED9F9E43AFAEE021BA18F8213
:10601B008E837F01021F7B7B017D011219D57B01D2
:10602B0022902BAFE0FBA3E0FAA3E0F922EEF0A362
:10603B00EFF0A3021ED9121EB97401021BA190002E
:10604B0001021B52A3F0A3F0A3F0A322121EB974FA
:10605B0005021BA1902A3EE4F0A3227B007A007973
:10606B0000021ED9E0F8A3E0F9A3E0FAA3E0FB22BB
:10607B00E92405F9E43A22121ED9021B3975FF01F6
:10608B00438E1075FF012290282AE0FF14F0EF22B7
:0F609B008B828A83021F7B75FF0390282AE022E5
:0660AA00FFFFFFFFFFFFF6
:1060B000FFFFFFFFFFFFFFFFFFFFFFFFFFFFFFFFF0
:1060C000FFFFFFFFFFFFFFFFFFFFFFFFFFFFFFFFE0
:1060D000FFFFFFFFFFFFFFFFFFFFFFFFFFFFFFFFD0
:1060E000FFFFFFFFFFFFFFFFFFFFFFFFFFFFFFFFC0
:107FB000FFFF3F3F3F0404047FC64F5632FD0001E0
:067FC000018433342C158E
:0A7FC600FFFFFFFFFFFFFFFFFFFFBB
:107FD000FFFFFFFFFFFFFFFFFFFFFFFFFFFFFFFFB1
:107FE000FFFFFFFFFFFFFFFFFFFFFFFFFFFFFFFFA1
:107FF000FFFFFFFFFFFFFFFFFFFFFFFFFFFFFFFF91
:108000002418F9E43AFA7D04E4FF902BF4121ED907
:10801000AE051DEE600C902BF4129FBFEF121BA15A
:1080200080EE22710E4AC36001D3400241FBE92475
:10803000B77105FF7B017A2C796F12B93A30010BC9
:10804000710E2402710530E50221A0710E24B67173
:1080500005F1B8703C710E24B7710530E733F1A01B
:10806000122F4C540764037028710E24B97105D384
:108070009440501DF1A0EF54F84402FFF1CA12B72A
:10808000EDEF440412B044710E24BB71054410217D
:108090009B710E24B7710530E721540F6401701BEA
:1080A000121B3930E70F710E24BB710530E4067ED8
:1080B000007F0180117E007F00800B710E24B7715C
:1080C000055410FF7E00EF4E6017710E24037105FA
:1080D00054FB121BA1F1A0121C6854F8440312AE09
:1080E0004B710E2402710520E20221A0710E24DFE3
:1080F0007105D39403400221A0710E24037105FF82
:1081000030E42C710E129EFBEF54EF121BA1710E86
:10811000240612A76EFFAEF0F1A0F1CAEF54076477
:1081200002C37001D312CF1B902C6FE04F41EA7154
:108130000E24DF7105D39402500C710E24BA710520
:10814000FF128F89801C902218E09023076008E0BE
:1081500004FF128EC48006E004FF128B7690230782
:10816000EFF0710E12AFB4121BA1902307E0F46080
:108170000712B877500241ED710E24DF7105C394E8
:1081800004501DF1A012B9317001D312CF1BEF447E
:108190000112B044710E12AE447404121BA141EDE1
:1081A00030010241F6710E24DF7105C394054002CF
:1081B00041F6710E2403710520E00241F6710E2490
:1081C000B67105FFC007710E24BA7105FD710E125C
:1081D000CF14C003C002C001710E24B171059029F3
:1081E000D4710D24027105540344019029D5710DF9
:1081F00012A76CFF9029D6E5F0F0A3EFF0D001D0E4
:1082000002D003D00712C0FFEF700241F6D17624EE
:10821000057105902486129F78D17612CF2A121B01
:10822000A1D17611009024861260579024861246C0
:108230006E12CF22710E12CEF9710E24DCF9E43ADF
:10824000FA741A75F039121C93F1A0121C68AEF082
:1082500054F8FFF1CAEF4402FFF1CAD17624047149
:1082600005FF710E2402129F81D17624067105FF4D
:108270007440C39F5009710E12C842742F80187445
:1082800011D39F500CEF24EFFF710E12C842EF8004
:1082900006710E12C842E4121BA1710E24B17105C1
:1082A000FF710E12CF14C003C002C001D176241C8E
:1082B000F1AED001D002D003F1D6710E12B03D7BE9
:1082C00001C003C002C001D176129EED7B01F1B264
:1082D000D001D002D0037F11F1D6710E12AE4474DA
:1082E00005121BA112B7EDEF440612B044902B0DFE
:1082F000121EB90255F5E4FF12A123229029821221
:108300001EB9E92407F9E43AFA021B39EFF0902B81
:108310000D121EB9E922902BC6121ED9121EE2E9D7
:1083200024097105541FF535D16C7102FFE53064E5
:1083300001601C7412D39F5016E535B402067419FF
:10834000D39F500BE535B40108741DD39F4002C381
:1083500022D16CE9240A710530E216D16CE92408B7
:108360007105F1B8600BD16CE924047105FF12C1ED
:10837000F7E53564026002811C902BC651FF30E79F
:1083800002811AD16CE924087105F1B87028200E19
:1083900002811AC20ED16CE924047105FD7F03121B
:1083A000CBE4D16CE924047105FFD22DD16CE92412
:1083B00013128C438064D16CE9240C7105FF540FB7
:1083C000FE6057D16CE9240DF9E43AFA1E7C00E90D
:1083D0002E129FE3FD90121CE06D703ED16C710275
:1083E00064197036D16CE9240CF9E43AFAEF54F0D0
:1083F00024102ED169129EECE4D169F1B27F1812DB
:10840000C930C203D16CE924047105FFD16CE924A1
:10841000087105FD12BE0812B4A1C322E4FFD16C9D
:10842000E9240D12CF3C129FE3FE90121CE0B5062A
:1084300002C3220FEFB404E6D16CE924047105FFF6
:10844000D16CE924067105540FFD12C2FB5002C322
:1084500022D16CE924087105F1B87002A19690123E
:108460001DE0FF54306002A196EF20E002A196E5E6
:108470003564016008902BC651FF30E71F200D02C4
:10848000A196E53564016002A196D16CE92411F949
:10849000E43AFEAF0112C4CC4002A19612C1D38FC0
:1084A00032BF0202C322D16C7102FF7440C39F50DD
:1084B00002C322E535B40119D16C12CF457B01C04E
:1084C00002C0017A0279B6F1B2D001D0027F04F184
:1084D000D6E53212C345D16C7102D175129EEDC042
:1084E00003C002C001D16CF1B2D001D002D003F1BF
:1084F000D6D16CE924047105FF12C26BD16CE9245A
:10850000067105540FFE12C33CA60612C263F8762C
:10851000070876D0D16CE9240C710554F0902BC972
:10852000F06073E0FF7440C39F406BE024F0F0D133
:108530007624177105540FFF7404D39F405890128E
:108540001CE0FED176241812CF3CF9EC1260139097
:108550002BC9E02F04D1752417D164E924047105D7
:10856000D1752402D164E924087105FF9024861294
:108570009EF7EF121BA1902486126041902486F191
:10858000A37440D1697102D1752406129F81D176FE
:10859000129EE212AF8ED16CE924087105F1B86029
:1085A00006EFF46002C160902BC651FFFF30E70276
:1085B000C160E5356002C160EF4401D16912CF4569
:1085C000C003C002C001902BC6129EF7121F02D139
:1085D0006C710224EEFF902BC6129FCAD164E9246D
:1085E00005710530E673D16CE924047105FFC22DD5
:1085F000D16CE9240C128C43D16CF1B27F1112C9F9
:108600003090248EE054BFF0D16CE92404710590C1
:10861000249AF0D16CE924067105540F90249BF044
:10862000D16CE9240CF1AE7B017A24799C7F05F1B1
:10863000F890248DF09024907419F0D16CE9240402
:108640007105FD902491F0A37422F0A37407F0C289
:108650000312BE0812B4A18009E535C37001D3220C
:10866000C322D322F9E43AFAEF121BA1902BC612CF
:108670001EB9021EE2FF902486121EB9E922902B39
:108680000D121ED9E924017105D39401403912A9B4
:10869000D5902B11EFF07E1A7F66710E24B771050D
:1086A00030E719710E24BB710520E010710E24BC57
:1086B000710512CF33B504047D07803F710E24B1DC
:1086C000710512C9158034E4902B11F07E1A7F6673
:1086D000710E24B7710530E719710E24BB710520A6
:1086E000E010710E24BC710512CF33B504047D0770
:1086F0008009710E24B1710512C9157C00902C41BE
:10870000EEF0A3EFF0902B0C7401F0AE04AF051265
:10871000A83AAC06AD07902C41E0FEA3E0FF025260
:1087200009710E4AC36001D35073710E12CE967454
:10873000FF121B7F121B39D394014002804F710E30
:10874000240171056401704EF1A0122F4C5407648E
:1087500003703A710E24B67105FD90121CE06D7025
:108760002C710E24B7710520E723710E24B9710511
:10877000D394405018200915F1A0EF54F84402FF9B
:10878000F1CA710E24B771054410121BA1902B0D74
:10879000121EB90255F5E4902B10F0112322E0FED1
:1087A000902B0D121EB9E92404F9E43AFA22F9E4F7
:1087B0003AFA902A9F021ED9FF90121CE06F22FF06
:1087C000121EB9E924DCF9E43AFAEE8FF0021C93A8
:1087D0007A2379B77F04902A9C121ED9AE071FEE28
:1087E0006015902A9F129FBF121B39902A9C129FDE
:1087F000BEEE121BA180E522F1D690121CE0FF22F2
:1088000002295B902AEE121ED91128902AF1124FEC
:1088100083902AEE121EB9E94A600C902AEE12905B
:108820001412CE8D12382B227E007F0402380FD214
:10883000071260057A0279B6110311BA716912BF85
:1088400020902AED7405F012382BE4F54C744D2578
:108850004CF8E6D394E8400DE4F6FE7452254CF94A
:10886000EE34115126054CE54CC3940540DF227FC0
:1088700001518CE49002B61255647B017A0279B6FC
:10888000E4FDF1F712CBD27E007F00C006C374076F
:108890009400FE74129400902A76F0A3CEF07B0030
:1088A0007A007900D006123851122655112F12473E
:1088B000F21260057A0279B6010312C9557401906B
:1088C00025C5F0E49025C7F022902C71122FB53108
:1088D0009B3127902C71E06405701F740411BF90C8
:1088E00025C37419F0A374EEF0740131AF311D602B
:1088F0002B8F828E837F05021F7B902C71E0700D81
:108900009025C77413F09025C57403F022311D60C3
:10891000098F828E837F04121F7B11BA22902574E7
:10892000E0FEA3E0FF4E22902AACECF0A3EDF09025
:108930002AA9126082FFF46003024B2F902AACE058
:10894000FEA3E0FF124B6B124F7B902AA9124F83BC
:10895000902AA9124F71B4FF0911BA311D60031298
:10896000601922902C70122FB5902C70E070043199
:108970009B80B411BA311D600312601922EF701A86
:108980009025C5E0B40404319B809C11BA311D6070
:10899000098F828E83E4FF121F7B227B017A257967
:1089A000C67C197DE4902AAE74FEF0A304F02290F8
:1089B000256AF0E4FF512EFF64046065EFB4030202
:1089C000805F90256AE0B4010CC20890121CE07030
:1089D0000490256AF090256AE0701CFF51D2C2080D
:1089E000E49025A1F0200A0D90121DE0543070058E
:1089F0007F0112CC67C20A9025C3E0FAA3E0FB4ACC
:108A0000601590256A12BA8712609B90256AE07003
:108A1000069025C3F0A3F090256AE0B40107740323
:108A2000F07F04516522FEAF01E4FD02381E51358E
:108A300090256AE0229025D0E0FFF46003124B1BE2
:108A40009025D074FFF022902569E0FF14F0EF70BC
:108A500013512EB40302800790256AE0B40405E4A4
:108A6000F0FF31B522902C73EFF05135902C73E06C
:108A70006004902569F07E1A7F167BFF7D2F124FD0
:108A80007B9025D0EFF0BFFF025147229026017462
:108A900001F0E4A3F09025A404F0E4A3F09025CC29
:108AA0007425F0A374FFF09025CB7401F0EF6012F1
:108AB0007B017A2579D990290B121ED912CB441249
:108AC0001AA75135E490256AF0C208C209C20AC249
:108AD0000BFFEF7002615AD21812BFEDAD07ED64C3
:108AE00001707990121AE0901219F0E4A3F090123C
:108AF0001FE090121EF0901218E090121712CF4D46
:108B000074017E00A805088005C333CE33CED8F9A2
:108B1000FF90121BE0FCFBEF5B6006EC4401F08071
:108B20000790121BE054FEF090121BE0FF7401A8A6
:108B300005088002C333D8FCF45F90121BF0E4FDFB
:108B400074272DF582E43412F583E0FF74232D128F
:108B5000A7E5EFF00DEDB404E722C218229028F14A
:108B6000E0FF51D2D22222EFF07E007F0712380FB1
:108B70009025D2EFF022902C6D716712CD19504ED6
:108B80007E007F0712380F7880EFF66039902C6DE9
:108B9000E0FFE4F1DA913A12CE8412382B902C6D7A
:108BA00012CB1E6029E4FF74822FF8E6700E902C21
:108BB0006DE0601AEF701774FFF080127881060F75
:108BC000EFB404E38008902C6D74FFF080AD12CDFB
:108BD00019400574FFF080507B027A0F79807E0F78
:108BE0007F8012380FA907902C6DE0FFE412CE753C
:108BF0008002C313D8FC7E0060047F0180027F00E6
:108C0000EF7803C333CE33CED8F9FF7886F6BF10A2
:108C1000107B027A0F79817E0F7F8112380FEFF17E
:108C2000EF7886E670027620902C6DE0FF22EF75DB
:108C3000F004A4FDACF0E075F011A42408F9740070
:108C400035F022F9E43AAD01902C10F0A3EDF012CA
:108C5000BB85902BC2EFF0C394024002C15D902B04
:108C6000C2E0241912BC63E0FF902BC5F09025D21E
:108C7000E0FEEFB50605E4F54C8006902BC5E0F567
:108C80004CE54C75F011A42407F9740035F0902BD5
:108C9000C512CAC7E54C1237FF8F52E5525403FF85
:108CA0006031902BC2E0FED162E0548FF0741E2E32
:108CB000D164E04420F0902BC2E0FE12A7D1E05432
:108CC0009FF074172E12A7D3E0FEEFC43354E0FFD9
:108CD000EE4FF0E4902BC4F0E4902BC3F0E54C9100
:108CE00037FA902BC4D182FA902BC3F1E412380FDB
:108CF0008F52902BC2E0FFD162E0540FFE902BC345
:108D0000E0FDC39E5010EF12A7DFE5822D12BB4598
:108D1000E0FD7C00800F902BC3E07005FC7DFE80A1
:108D2000047C007D00AF05EF65526002801FEF6498
:108D3000FE7002C15D902BC3E0FD6009EF7006EE8E
:108D40006D7002C15D902BC312CB3C4090902BC341
:108D5000E064047002C15D902BC412CB3C500281D0
:108D6000D8E54C9137AF01F54A8F4B902BC2D161BA
:108D7000E0540FF552E4902BC3F0902BC3E0FFC3F7
:108D800094045019AD4CF1DBA4FDACF0E54C9137E7
:108D900012CACF6008902BC3E004F080DD902BC393
:108DA000E0C3940440037403F0902BC3E0FFAD4C88
:108DB000D18D902BC3EFF0902BC2D161E0540FF511
:108DC00052E4902BC4F0E5527011E54C9137FA90C3
:108DD0002BC3D182FEAF017DFE8025902BC4E0C362
:108DE00095525027E54C9137FA902BC3D182F1E28E
:108DF000E0FD902BC212A7DEE5822D12BB45E0FDFF
:108E000012381E902BC4E004F080D0902BC4E0C335
:108E100094045011E54C9137FA902BC3D182F1E2C2
:108E2000E4FD12381EE54C12C9E31238088F529047
:108E30002BC2D161E054F0C39402500E12BC6B807F
:108E400002C333D8FCF45252800B12BC6B8002C3B5
:108E500033D8FC4252E54C12C9E312381522902B4C
:108E60007AE0241EF582E43412F58322AE4AAF4B39
:108E70007C007D11121BD574192FF974003EFA90F5
:108E800028FAE075F004A429F9EA35F022E4FE7C22
:108E900003EEC39404502A741A2D12A952E05CFB0D
:108EA000EE25E0FAEBA802088002C313D8FCB50750
:108EB00007902309EEF0FF220EEC25E025E0FC8070
:108EC000D07F0022902C6CEFF0902C6CE0FFC394CC
:108ED00004505F902218E0FD7880F6D18D90221822
:108EE000912E12CACF604312CE6BF1DAA4FDACF022
:108EF0009022189136FAE92DF9EA3C12CE84123804
:108F00002B902C6C12CB1E6029E4FF74822FF8E6A4
:108F1000700E902C6CE0601AEF701774FFF08012E6
:108F20007881060FEFB404E38008902C6C7404F091
:108F30008097902C6CE0C39404400574FFF080434C
:108F400090221812C9E2123808A90712CE6B12CE6D
:108F5000758002C313D8FC5403600D24FE600F1407
:108F6000701278867618801078867620800A788647
:108F700076108004788676089022181237FEEF600B
:108F800002F1EF902C6CE0FF22902C6E7167902222
:108F90001874FFF0902307F0902C6EE0B5070AE4F8
:108FA000902218F0FF7176801F902C6EE0FDE4FF98
:108FB000D18D902C6E912E12CACF6011902C6EE044
:108FC000902218F0E4FFD1C4902307EFF09022180C
:108FD000E0C394FF50028001C322FDD18DEF75F0F4
:108FE0000422FAA3E07E0029F9EE3AFEAF01222521
:108FF000E044107886F622902BF7121ED97E007F6F
:109000000412381E902BF7111411217404F0123839
:10901000517F01227E007F00021EB97B007A007919
:1090200000902A76E4F0A3227E117F52111B740572
:10903000F012385112BF247D05E4FF02800A902807
:10904000F0125FE9D1C4121B39FFC39420401FEF17
:10905000D394FF50199028F5E0FE949F501090286B
:10906000F0E0FFA3E0FD902B47EEF0021B0BD1C414
:10907000121B3964016002C1C2E924011283051286
:109080001F5195C40190E3029100039413049518B5
:109090000590AA0893E00B91E40C93441491871671
:1090A00091CE1796B622000096C2300902C1C220A6
:1090B0000802C1C29028F5E0C394035002C1C2D196
:1090C000C4E9240212830520E002C1C2D20B902819
:1090D000F1E0FF9028F0E07D1030E1027D12E4FB2A
:1090E000FA801B9028F0E030E10AA3E0FFE4FBFAED
:1090F0007D07800A9028F1E0FFE4FBFA7D05C1F6C8
:10910000300902C1C2200802C1C29028F5E0C39410
:10911000074003D38001C34002C1C290256A740195
:10912000F0D1C4E9240212830590121CF09028F2B9
:10913000129EF71287B27B017A0279B67F041287FA
:10914000D67B017A0279B690121CE0FD128FF7905F
:10915000121CE0700612CBD212C66190121CE07095
:109160001E11287E007F077B007A007900902A7606
:109170007411F0A3744BF0123851E49025D2F0E44E
:10918000FF1289B5028B5D90121DE020E002C1C282
